{
    "_format": "hh-sol-artifact-1",
    "contractName": "CourseCertNFT",
    "sourceName": "contracts/CourseCertNFT.sol",
    "abi": [
        {
            "inputs": [],
            "stateMutability": "nonpayable",
            "type": "constructor"
        },
        {
            "inputs": [],
            "name": "AccessControlBadConfirmation",
            "type": "error"
        },
        {
            "inputs": [
                {
                    "internalType": "address",
                    "name": "account",
                    "type": "address"
                },
                {
                    "internalType": "bytes32",
                    "name": "neededRole",
                    "type": "bytes32"
                }
            ],
            "name": "AccessControlUnauthorizedAccount",
            "type": "error"
        },
        {
            "inputs": [
                {
                    "internalType": "address",
                    "name": "sender",
                    "type": "address"
                },
                {
                    "internalType": "uint256",
                    "name": "tokenId",
                    "type": "uint256"
                },
                {
                    "internalType": "address",
                    "name": "owner",
                    "type": "address"
                }
            ],
            "name": "ERC721IncorrectOwner",
            "type": "error"
        },
        {
            "inputs": [
                {
                    "internalType": "address",
                    "name": "operator",
                    "type": "address"
                },
                {
                    "internalType": "uint256",
                    "name": "tokenId",
                    "type": "uint256"
                }
            ],
            "name": "ERC721InsufficientApproval",
            "type": "error"
        },
        {
            "inputs": [
                {
                    "internalType": "address",
                    "name": "approver",
                    "type": "address"
                }
            ],
            "name": "ERC721InvalidApprover",
            "type": "error"
        },
        {
            "inputs": [
                {
                    "internalType": "address",
                    "name": "operator",
                    "type": "address"
                }
            ],
            "name": "ERC721InvalidOperator",
            "type": "error"
        },
        {
            "inputs": [
                {
                    "internalType": "address",
                    "name": "owner",
                    "type": "address"
                }
            ],
            "name": "ERC721InvalidOwner",
            "type": "error"
        },
        {
            "inputs": [
                {
                    "internalType": "address",
                    "name": "receiver",
                    "type": "address"
                }
            ],
            "name": "ERC721InvalidReceiver",
            "type": "error"
        },
        {
            "inputs": [
                {
                    "internalType": "address",
                    "name": "sender",
                    "type": "address"
                }
            ],
            "name": "ERC721InvalidSender",
            "type": "error"
        },
        {
            "inputs": [
                {
                    "internalType": "uint256",
                    "name": "tokenId",
                    "type": "uint256"
                }
            ],
            "name": "ERC721NonexistentToken",
            "type": "error"
        },
        {
            "anonymous": false,
            "inputs": [
                {
                    "indexed": true,
                    "internalType": "address",
                    "name": "owner",
                    "type": "address"
                },
                {
                    "indexed": true,
                    "internalType": "address",
                    "name": "approved",
                    "type": "address"
                },
                {
                    "indexed": true,
                    "internalType": "uint256",
                    "name": "tokenId",
                    "type": "uint256"
                }
            ],
            "name": "Approval",
            "type": "event"
        },
        {
            "anonymous": false,
            "inputs": [
                {
                    "indexed": true,
                    "internalType": "address",
                    "name": "owner",
                    "type": "address"
                },
                {
                    "indexed": true,
                    "internalType": "address",
                    "name": "operator",
                    "type": "address"
                },
                {
                    "indexed": false,
                    "internalType": "bool",
                    "name": "approved",
                    "type": "bool"
                }
            ],
            "name": "ApprovalForAll",
            "type": "event"
        },
        {
            "anonymous": false,
            "inputs": [
                {
                    "indexed": false,
                    "internalType": "uint256",
                    "name": "_fromTokenId",
                    "type": "uint256"
                },
                {
                    "indexed": false,
                    "internalType": "uint256",
                    "name": "_toTokenId",
                    "type": "uint256"
                }
            ],
            "name": "BatchMetadataUpdate",
            "type": "event"
        },
        {
            "anonymous": false,
            "inputs": [
                {
                    "indexed": true,
                    "internalType": "address",
                    "name": "recipient",
                    "type": "address"
                },
                {
                    "indexed": true,
                    "internalType": "uint256",
                    "name": "tokenId",
                    "type": "uint256"
                },
                {
                    "indexed": false,
                    "internalType": "string",
                    "name": "tokenURI",
                    "type": "string"
                }
            ],
            "name": "CertificateMinted",
            "type": "event"
        },
        {
            "anonymous": false,
            "inputs": [
                {
                    "indexed": false,
                    "internalType": "uint256",
                    "name": "_tokenId",
                    "type": "uint256"
                }
            ],
            "name": "MetadataUpdate",
            "type": "event"
        },
        {
            "anonymous": false,
            "inputs": [
                {
                    "indexed": true,
                    "internalType": "bytes32",
                    "name": "role",
                    "type": "bytes32"
                },
                {
                    "indexed": true,
                    "internalType": "bytes32",
                    "name": "previousAdminRole",
                    "type": "bytes32"
                },
                {
                    "indexed": true,
                    "internalType": "bytes32",
                    "name": "newAdminRole",
                    "type": "bytes32"
                }
            ],
            "name": "RoleAdminChanged",
            "type": "event"
        },
        {
            "anonymous": false,
            "inputs": [
                {
                    "indexed": true,
                    "internalType": "bytes32",
                    "name": "role",
                    "type": "bytes32"
                },
                {
                    "indexed": true,
                    "internalType": "address",
                    "name": "account",
                    "type": "address"
                },
                {
                    "indexed": true,
                    "internalType": "address",
                    "name": "sender",
                    "type": "address"
                }
            ],
            "name": "RoleGranted",
            "type": "event"
        },
        {
            "anonymous": false,
            "inputs": [
                {
                    "indexed": true,
                    "internalType": "bytes32",
                    "name": "role",
                    "type": "bytes32"
                },
                {
                    "indexed": true,
                    "internalType": "address",
                    "name": "account",
                    "type": "address"
                },
                {
                    "indexed": true,
                    "internalType": "address",
                    "name": "sender",
                    "type": "address"
                }
            ],
            "name": "RoleRevoked",
            "type": "event"
        },
        {
            "anonymous": false,
            "inputs": [
                {
                    "indexed": true,
                    "internalType": "address",
                    "name": "from",
                    "type": "address"
                },
                {
                    "indexed": true,
                    "internalType": "address",
                    "name": "to",
                    "type": "address"
                },
                {
                    "indexed": true,
                    "internalType": "uint256",
                    "name": "tokenId",
                    "type": "uint256"
                }
            ],
            "name": "Transfer",
            "type": "event"
        },
        {
            "inputs": [],
            "name": "ADMIN_ROLE",
            "outputs": [
                {
                    "internalType": "bytes32",
                    "name": "",
                    "type": "bytes32"
                }
            ],
            "stateMutability": "view",
            "type": "function"
        },
        {
            "inputs": [],
            "name": "DEFAULT_ADMIN_ROLE",
            "outputs": [
                {
                    "internalType": "bytes32",
                    "name": "",
                    "type": "bytes32"
                }
            ],
            "stateMutability": "view",
            "type": "function"
        },
        {
            "inputs": [
                {
                    "internalType": "address",
                    "name": "to",
                    "type": "address"
                },
                {
                    "internalType": "uint256",
                    "name": "tokenId",
                    "type": "uint256"
                }
            ],
            "name": "approve",
            "outputs": [],
            "stateMutability": "nonpayable",
            "type": "function"
        },
        {
            "inputs": [
                {
                    "internalType": "address",
                    "name": "owner",
                    "type": "address"
                }
            ],
            "name": "balanceOf",
            "outputs": [
                {
                    "internalType": "uint256",
                    "name": "",
                    "type": "uint256"
                }
            ],
            "stateMutability": "view",
            "type": "function"
        },
        {
            "inputs": [
                {
                    "internalType": "uint256",
                    "name": "tokenId",
                    "type": "uint256"
                }
            ],
            "name": "getApproved",
            "outputs": [
                {
                    "internalType": "address",
                    "name": "",
                    "type": "address"
                }
            ],
            "stateMutability": "view",
            "type": "function"
        },
        {
            "inputs": [
                {
                    "internalType": "bytes32",
                    "name": "role",
                    "type": "bytes32"
                }
            ],
            "name": "getRoleAdmin",
            "outputs": [
                {
                    "internalType": "bytes32",
                    "name": "",
                    "type": "bytes32"
                }
            ],
            "stateMutability": "view",
            "type": "function"
        },
        {
            "inputs": [
                {
                    "internalType": "bytes32",
                    "name": "role",
                    "type": "bytes32"
                },
                {
                    "internalType": "address",
                    "name": "account",
                    "type": "address"
                }
            ],
            "name": "grantRole",
            "outputs": [],
            "stateMutability": "nonpayable",
            "type": "function"
        },
        {
            "inputs": [
                {
                    "internalType": "bytes32",
                    "name": "role",
                    "type": "bytes32"
                },
                {
                    "internalType": "address",
                    "name": "account",
                    "type": "address"
                }
            ],
            "name": "hasRole",
            "outputs": [
                {
                    "internalType": "bool",
                    "name": "",
                    "type": "bool"
                }
            ],
            "stateMutability": "view",
            "type": "function"
        },
        {
            "inputs": [
                {
                    "internalType": "address",
                    "name": "owner",
                    "type": "address"
                },
                {
                    "internalType": "address",
                    "name": "operator",
                    "type": "address"
                }
            ],
            "name": "isApprovedForAll",
            "outputs": [
                {
                    "internalType": "bool",
                    "name": "",
                    "type": "bool"
                }
            ],
            "stateMutability": "view",
            "type": "function"
        },
        {
            "inputs": [
                {
                    "internalType": "address",
                    "name": "_recipient",
                    "type": "address"
                },
                {
                    "internalType": "string",
                    "name": "_tokenURI",
                    "type": "string"
                }
            ],
            "name": "mintCert",
            "outputs": [
                {
                    "internalType": "uint256",
                    "name": "",
                    "type": "uint256"
                }
            ],
            "stateMutability": "nonpayable",
            "type": "function"
        },
        {
            "inputs": [],
            "name": "name",
            "outputs": [
                {
                    "internalType": "string",
                    "name": "",
                    "type": "string"
                }
            ],
            "stateMutability": "view",
            "type": "function"
        },
        {
            "inputs": [
                {
                    "internalType": "uint256",
                    "name": "tokenId",
                    "type": "uint256"
                }
            ],
            "name": "ownerOf",
            "outputs": [
                {
                    "internalType": "address",
                    "name": "",
                    "type": "address"
                }
            ],
            "stateMutability": "view",
            "type": "function"
        },
        {
            "inputs": [
                {
                    "internalType": "bytes32",
                    "name": "role",
                    "type": "bytes32"
                },
                {
                    "internalType": "address",
                    "name": "callerConfirmation",
                    "type": "address"
                }
            ],
            "name": "renounceRole",
            "outputs": [],
            "stateMutability": "nonpayable",
            "type": "function"
        },
        {
            "inputs": [
                {
                    "internalType": "bytes32",
                    "name": "role",
                    "type": "bytes32"
                },
                {
                    "internalType": "address",
                    "name": "account",
                    "type": "address"
                }
            ],
            "name": "revokeRole",
            "outputs": [],
            "stateMutability": "nonpayable",
            "type": "function"
        },
        {
            "inputs": [
                {
                    "internalType": "address",
                    "name": "from",
                    "type": "address"
                },
                {
                    "internalType": "address",
                    "name": "to",
                    "type": "address"
                },
                {
                    "internalType": "uint256",
                    "name": "tokenId",
                    "type": "uint256"
                }
            ],
            "name": "safeTransferFrom",
            "outputs": [],
            "stateMutability": "nonpayable",
            "type": "function"
        },
        {
            "inputs": [
                {
                    "internalType": "address",
                    "name": "from",
                    "type": "address"
                },
                {
                    "internalType": "address",
                    "name": "to",
                    "type": "address"
                },
                {
                    "internalType": "uint256",
                    "name": "tokenId",
                    "type": "uint256"
                },
                {
                    "internalType": "bytes",
                    "name": "data",
                    "type": "bytes"
                }
            ],
            "name": "safeTransferFrom",
            "outputs": [],
            "stateMutability": "nonpayable",
            "type": "function"
        },
        {
            "inputs": [
                {
                    "internalType": "address",
                    "name": "operator",
                    "type": "address"
                },
                {
                    "internalType": "bool",
                    "name": "approved",
                    "type": "bool"
                }
            ],
            "name": "setApprovalForAll",
            "outputs": [],
            "stateMutability": "nonpayable",
            "type": "function"
        },
        {
            "inputs": [
                {
                    "internalType": "bytes4",
                    "name": "interfaceId",
                    "type": "bytes4"
                }
            ],
            "name": "supportsInterface",
            "outputs": [
                {
                    "internalType": "bool",
                    "name": "",
                    "type": "bool"
                }
            ],
            "stateMutability": "view",
            "type": "function"
        },
        {
            "inputs": [],
            "name": "symbol",
            "outputs": [
                {
                    "internalType": "string",
                    "name": "",
                    "type": "string"
                }
            ],
            "stateMutability": "view",
            "type": "function"
        },
        {
            "inputs": [
                {
                    "internalType": "uint256",
                    "name": "tokenId",
                    "type": "uint256"
                }
            ],
            "name": "tokenURI",
            "outputs": [
                {
                    "internalType": "string",
                    "name": "",
                    "type": "string"
                }
            ],
            "stateMutability": "view",
            "type": "function"
        },
        {
            "inputs": [
                {
                    "internalType": "address",
                    "name": "from",
                    "type": "address"
                },
                {
                    "internalType": "address",
                    "name": "to",
                    "type": "address"
                },
                {
                    "internalType": "uint256",
                    "name": "tokenId",
                    "type": "uint256"
                }
            ],
            "name": "transferFrom",
            "outputs": [],
            "stateMutability": "nonpayable",
            "type": "function"
        }
    ],
    "bytecode": "0x608060405234801561001057600080fd5b506040518060400160405280600d81526020017f436f75727365436572744e4654000000000000000000000000000000000000008152506040518060400160405280600481526020017f4345525400000000000000000000000000000000000000000000000000000000815250816000908161008c9190610496565b50806001908161009c9190610496565b5050506100cf7fa49807205ce4d355092ef5a8a18f56e8913cf4a201fbe287825b095693c21775336100d560201b60201c565b50610568565b60006100e783836101d360201b60201c565b6101c85760016007600085815260200190815260200160002060000160008473ffffffffffffffffffffffffffffffffffffffff1673ffffffffffffffffffffffffffffffffffffffff16815260200190815260200160002060006101000a81548160ff02191690831515021790555061016561023e60201b60201c565b73ffffffffffffffffffffffffffffffffffffffff168273ffffffffffffffffffffffffffffffffffffffff16847f2f8788117e7eff1d82e926ec794901d17c78024a50270940304540a733656f0d60405160405180910390a4600190506101cd565b600090505b92915050565b60006007600084815260200190815260200160002060000160008373ffffffffffffffffffffffffffffffffffffffff1673ffffffffffffffffffffffffffffffffffffffff16815260200190815260200160002060009054906101000a900460ff16905092915050565b600033905090565b600081519050919050565b7f4e487b7100000000000000000000000000000000000000000000000000000000600052604160045260246000fd5b7f4e487b7100000000000000000000000000000000000000000000000000000000600052602260045260246000fd5b600060028204905060018216806102c757607f821691505b6020821081036102da576102d9610280565b5b50919050565b60008190508160005260206000209050919050565b60006020601f8301049050919050565b600082821b905092915050565b6000600883026103427fffffffffffffffffffffffffffffffffffffffffffffffffffffffffffffffff82610305565b61034c8683610305565b95508019841693508086168417925050509392505050565b6000819050919050565b6000819050919050565b600061039361038e61038984610364565b61036e565b610364565b9050919050565b6000819050919050565b6103ad83610378565b6103c16103b98261039a565b848454610312565b825550505050565b600090565b6103d66103c9565b6103e18184846103a4565b505050565b5b81811015610405576103fa6000826103ce565b6001810190506103e7565b5050565b601f82111561044a5761041b816102e0565b610424846102f5565b81016020851015610433578190505b61044761043f856102f5565b8301826103e6565b50505b505050565b600082821c905092915050565b600061046d6000198460080261044f565b1980831691505092915050565b6000610486838361045c565b9150826002028217905092915050565b61049f82610246565b67ffffffffffffffff8111156104b8576104b7610251565b5b6104c282546102af565b6104cd828285610409565b600060209050601f83116001811461050057600084156104ee578287015190505b6104f8858261047a565b865550610560565b601f19841661050e866102e0565b60005b8281101561053657848901518255600182019150602085019450602081019050610511565b86831015610553578489015161054f601f89168261045c565b8355505b6001600288020188555050505b505050505050565b612cf2806105776000396000f3fe608060405234801561001057600080fd5b50600436106101375760003560e01c806370a08231116100b8578063a22cb4651161007c578063a22cb46514610360578063b88d4fde1461037c578063c87b56dd14610398578063d547741f146103c8578063e985e9c5146103e4578063f2a46acc1461041457610137565b806370a08231146102a657806375b238fc146102d657806391d14854146102f457806395d89b4114610324578063a217fddf1461034257610137565b8063248a9ca3116100ff578063248a9ca3146101f25780632f2ff15d1461022257806336568abe1461023e57806342842e0e1461025a5780636352211e1461027657610137565b806301ffc9a71461013c57806306fdde031461016c578063081812fc1461018a578063095ea7b3146101ba57806323b872dd146101d6575b600080fd5b61015660048036038101906101519190611f7c565b610444565b6040516101639190611fc4565b60405180910390f35b610174610456565b604051610181919061206f565b60405180910390f35b6101a4600480360381019061019f91906120c7565b6104e8565b6040516101b19190612135565b60405180910390f35b6101d460048036038101906101cf919061217c565b610504565b005b6101f060048036038101906101eb91906121bc565b61051a565b005b61020c60048036038101906102079190612245565b61061c565b6040516102199190612281565b60405180910390f35b61023c6004803603810190610237919061229c565b61063c565b005b6102586004803603810190610253919061229c565b61065e565b005b610274600480360381019061026f91906121bc565b6106d9565b005b610290600480360381019061028b91906120c7565b6106f9565b60405161029d9190612135565b60405180910390f35b6102c060048036038101906102bb91906122dc565b61070b565b6040516102cd9190612318565b60405180910390f35b6102de6107c5565b6040516102eb9190612281565b60405180910390f35b61030e6004803603810190610309919061229c565b6107e9565b60405161031b9190611fc4565b60405180910390f35b61032c610854565b604051610339919061206f565b60405180910390f35b61034a6108e6565b6040516103579190612281565b60405180910390f35b61037a6004803603810190610375919061235f565b6108ed565b005b610396600480360381019061039191906124d4565b610903565b005b6103b260048036038101906103ad91906120c7565b610928565b6040516103bf919061206f565b60405180910390f35b6103e260048036038101906103dd919061229c565b61093a565b005b6103fe60048036038101906103f99190612557565b61095c565b60405161040b9190611fc4565b60405180910390f35b61042e60048036038101906104299190612638565b6109f0565b60405161043b9190612318565b60405180910390f35b600061044f82610ae7565b9050919050565b606060008054610465906126c3565b80601f0160208091040260200160405190810160405280929190818152602001828054610491906126c3565b80156104de5780601f106104b3576101008083540402835291602001916104de565b820191906000526020600020905b8154815290600101906020018083116104c157829003601f168201915b5050505050905090565b60006104f382610b61565b506104fd82610be9565b9050919050565b6105168282610511610c26565b610c2e565b5050565b600073ffffffffffffffffffffffffffffffffffffffff168273ffffffffffffffffffffffffffffffffffffffff160361058c5760006040517f64a0ae920000000000000000000000000000000000000000000000000000000081526004016105839190612135565b60405180910390fd5b60006105a0838361059b610c26565b610c40565b90508373ffffffffffffffffffffffffffffffffffffffff168173ffffffffffffffffffffffffffffffffffffffff1614610616578382826040517f64283d7b00000000000000000000000000000000000000000000000000000000815260040161060d939291906126f4565b60405180910390fd5b50505050565b600060076000838152602001908152602001600020600101549050919050565b6106458261061c565b61064e81610d0d565b6106588383610d21565b50505050565b610666610c26565b73ffffffffffffffffffffffffffffffffffffffff168173ffffffffffffffffffffffffffffffffffffffff16146106ca576040517f6697b23200000000000000000000000000000000000000000000000000000000815260040160405180910390fd5b6106d48282610e13565b505050565b6106f483838360405180602001604052806000815250610903565b505050565b600061070482610b61565b9050919050565b60008073ffffffffffffffffffffffffffffffffffffffff168273ffffffffffffffffffffffffffffffffffffffff160361077e5760006040517f89c62b640000000000000000000000000000000000000000000000000000000081526004016107759190612135565b60405180910390fd5b600360008373ffffffffffffffffffffffffffffffffffffffff1673ffffffffffffffffffffffffffffffffffffffff168152602001908152602001600020549050919050565b7fa49807205ce4d355092ef5a8a18f56e8913cf4a201fbe287825b095693c2177581565b60006007600084815260200190815260200160002060000160008373ffffffffffffffffffffffffffffffffffffffff1673ffffffffffffffffffffffffffffffffffffffff16815260200190815260200160002060009054906101000a900460ff16905092915050565b606060018054610863906126c3565b80601f016020809104026020016040519081016040528092919081815260200182805461088f906126c3565b80156108dc5780601f106108b1576101008083540402835291602001916108dc565b820191906000526020600020905b8154815290600101906020018083116108bf57829003601f168201915b5050505050905090565b6000801b81565b6108ff6108f8610c26565b8383610f06565b5050565b61090e84848461051a565b610922610919610c26565b85858585611075565b50505050565b606061093382611226565b9050919050565b6109438261061c565b61094c81610d0d565b6109568383610e13565b50505050565b6000600560008473ffffffffffffffffffffffffffffffffffffffff1673ffffffffffffffffffffffffffffffffffffffff16815260200190815260200160002060008373ffffffffffffffffffffffffffffffffffffffff1673ffffffffffffffffffffffffffffffffffffffff16815260200190815260200160002060009054906101000a900460ff16905092915050565b6000610a1c7fa49807205ce4d355092ef5a8a18f56e8913cf4a201fbe287825b095693c21775336107e9565b610a5b576040517f08c379a0000000000000000000000000000000000000000000000000000000008152600401610a5290612777565b60405180910390fd5b60086000815480929190610a6e906127c6565b919050555060006008549050610a848482611339565b610a8e8184611357565b808473ffffffffffffffffffffffffffffffffffffffff167fde5d6fd45e32fffb472bcbaeedf6a2e3944633c9701eec7d99adfa07ad6104c185604051610ad5919061206f565b60405180910390a38091505092915050565b60007f7965db0b000000000000000000000000000000000000000000000000000000007bffffffffffffffffffffffffffffffffffffffffffffffffffffffff1916827bffffffffffffffffffffffffffffffffffffffffffffffffffffffff19161480610b5a5750610b59826113b3565b5b9050919050565b600080610b6d83611414565b9050600073ffffffffffffffffffffffffffffffffffffffff168173ffffffffffffffffffffffffffffffffffffffff1603610be057826040517f7e273289000000000000000000000000000000000000000000000000000000008152600401610bd79190612318565b60405180910390fd5b80915050919050565b60006004600083815260200190815260200160002060009054906101000a900473ffffffffffffffffffffffffffffffffffffffff169050919050565b600033905090565b610c3b8383836001611451565b505050565b600080610c4c84611414565b9050600073ffffffffffffffffffffffffffffffffffffffff168173ffffffffffffffffffffffffffffffffffffffff1614158015610cb85750600073ffffffffffffffffffffffffffffffffffffffff168573ffffffffffffffffffffffffffffffffffffffff1614155b15610cf8576040517f08c379a0000000000000000000000000000000000000000000000000000000008152600401610cef9061285a565b60405180910390fd5b610d03858585611616565b9150509392505050565b610d1e81610d19610c26565b611830565b50565b6000610d2d83836107e9565b610e085760016007600085815260200190815260200160002060000160008473ffffffffffffffffffffffffffffffffffffffff1673ffffffffffffffffffffffffffffffffffffffff16815260200190815260200160002060006101000a81548160ff021916908315150217905550610da5610c26565b73ffffffffffffffffffffffffffffffffffffffff168273ffffffffffffffffffffffffffffffffffffffff16847f2f8788117e7eff1d82e926ec794901d17c78024a50270940304540a733656f0d60405160405180910390a460019050610e0d565b600090505b92915050565b6000610e1f83836107e9565b15610efb5760006007600085815260200190815260200160002060000160008473ffffffffffffffffffffffffffffffffffffffff1673ffffffffffffffffffffffffffffffffffffffff16815260200190815260200160002060006101000a81548160ff021916908315150217905550610e98610c26565b73ffffffffffffffffffffffffffffffffffffffff168273ffffffffffffffffffffffffffffffffffffffff16847ff6391f5c32d9c69d2a47ea670b442974b53935d1edc7fd64eb21e047a839171b60405160405180910390a460019050610f00565b600090505b92915050565b600073ffffffffffffffffffffffffffffffffffffffff168273ffffffffffffffffffffffffffffffffffffffff1603610f7757816040517f5b08ba18000000000000000000000000000000000000000000000000000000008152600401610f6e9190612135565b60405180910390fd5b80600560008573ffffffffffffffffffffffffffffffffffffffff1673ffffffffffffffffffffffffffffffffffffffff16815260200190815260200160002060008473ffffffffffffffffffffffffffffffffffffffff1673ffffffffffffffffffffffffffffffffffffffff16815260200190815260200160002060006101000a81548160ff0219169083151502179055508173ffffffffffffffffffffffffffffffffffffffff168373ffffffffffffffffffffffffffffffffffffffff167f17307eab39ab6107e8899845ad3d59bd9653f200f220920489ca2b5937696c31836040516110689190611fc4565b60405180910390a3505050565b60008373ffffffffffffffffffffffffffffffffffffffff163b111561121f578273ffffffffffffffffffffffffffffffffffffffff1663150b7a02868685856040518563ffffffff1660e01b81526004016110d494939291906128cf565b6020604051808303816000875af192505050801561111057506040513d601f19601f8201168201806040525081019061110d9190612930565b60015b611194573d8060008114611140576040519150601f19603f3d011682016040523d82523d6000602084013e611145565b606091505b50600081510361118c57836040517f64a0ae920000000000000000000000000000000000000000000000000000000081526004016111839190612135565b60405180910390fd5b805181602001fd5b63150b7a0260e01b7bffffffffffffffffffffffffffffffffffffffffffffffffffffffff1916817bffffffffffffffffffffffffffffffffffffffffffffffffffffffff19161461121d57836040517f64a0ae920000000000000000000000000000000000000000000000000000000081526004016112149190612135565b60405180910390fd5b505b5050505050565b606061123182610b61565b506000600660008481526020019081526020016000208054611252906126c3565b80601f016020809104026020016040519081016040528092919081815260200182805461127e906126c3565b80156112cb5780601f106112a0576101008083540402835291602001916112cb565b820191906000526020600020905b8154815290600101906020018083116112ae57829003601f168201915b5050505050905060006112dc611881565b905060008151036112f1578192505050611334565b60008251111561132657808260405160200161130e929190612999565b60405160208183030381529060405292505050611334565b61132f84611898565b925050505b919050565b611353828260405180602001604052806000815250611901565b5050565b806006600084815260200190815260200160002090816113779190612b69565b507ff8e1a15aba9398e019f0b49df1a4fde98ee17ae345cb5f6b5e2c27f5033e8ce7826040516113a79190612318565b60405180910390a15050565b6000634906490660e01b7bffffffffffffffffffffffffffffffffffffffffffffffffffffffff1916827bffffffffffffffffffffffffffffffffffffffffffffffffffffffff1916148061140d575061140c82611925565b5b9050919050565b60006002600083815260200190815260200160002060009054906101000a900473ffffffffffffffffffffffffffffffffffffffff169050919050565b808061148a5750600073ffffffffffffffffffffffffffffffffffffffff168273ffffffffffffffffffffffffffffffffffffffff1614155b156115be57600061149a84610b61565b9050600073ffffffffffffffffffffffffffffffffffffffff168373ffffffffffffffffffffffffffffffffffffffff161415801561150557508273ffffffffffffffffffffffffffffffffffffffff168173ffffffffffffffffffffffffffffffffffffffff1614155b80156115185750611516818461095c565b155b1561155a57826040517fa9fbf51f0000000000000000000000000000000000000000000000000000000081526004016115519190612135565b60405180910390fd5b81156115bc57838573ffffffffffffffffffffffffffffffffffffffff168273ffffffffffffffffffffffffffffffffffffffff167f8c5be1e5ebec7d5bd14f71427d1e84f3dd0314c0f7b2291e5b200ac8c7c3b92560405160405180910390a45b505b836004600085815260200190815260200160002060006101000a81548173ffffffffffffffffffffffffffffffffffffffff021916908373ffffffffffffffffffffffffffffffffffffffff16021790555050505050565b60008061162284611414565b9050600073ffffffffffffffffffffffffffffffffffffffff168373ffffffffffffffffffffffffffffffffffffffff161461166457611663818486611a07565b5b600073ffffffffffffffffffffffffffffffffffffffff168173ffffffffffffffffffffffffffffffffffffffff16146116f5576116a6600085600080611451565b6001600360008373ffffffffffffffffffffffffffffffffffffffff1673ffffffffffffffffffffffffffffffffffffffff168152602001908152602001600020600082825403925050819055505b600073ffffffffffffffffffffffffffffffffffffffff168573ffffffffffffffffffffffffffffffffffffffff1614611778576001600360008773ffffffffffffffffffffffffffffffffffffffff1673ffffffffffffffffffffffffffffffffffffffff168152602001908152602001600020600082825401925050819055505b846002600086815260200190815260200160002060006101000a81548173ffffffffffffffffffffffffffffffffffffffff021916908373ffffffffffffffffffffffffffffffffffffffff160217905550838573ffffffffffffffffffffffffffffffffffffffff168273ffffffffffffffffffffffffffffffffffffffff167fddf252ad1be2c89b69c2b068fc378daa952ba7f163c4a11628f55a4df523b3ef60405160405180910390a4809150509392505050565b61183a82826107e9565b61187d5780826040517fe2517d3f000000000000000000000000000000000000000000000000000000008152600401611874929190612c3b565b60405180910390fd5b5050565b606060405180602001604052806000815250905090565b60606118a382610b61565b5060006118ae611881565b905060008151116118ce57604051806020016040528060008152506118f9565b806118d884611acb565b6040516020016118e9929190612999565b6040516020818303038152906040525b915050919050565b61190b8383611b99565b611920611916610c26565b6000858585611075565b505050565b60007f80ac58cd000000000000000000000000000000000000000000000000000000007bffffffffffffffffffffffffffffffffffffffffffffffffffffffff1916827bffffffffffffffffffffffffffffffffffffffffffffffffffffffff191614806119f057507f5b5e139f000000000000000000000000000000000000000000000000000000007bffffffffffffffffffffffffffffffffffffffffffffffffffffffff1916827bffffffffffffffffffffffffffffffffffffffffffffffffffffffff1916145b80611a0057506119ff82611c92565b5b9050919050565b611a12838383611cfc565b611ac657600073ffffffffffffffffffffffffffffffffffffffff168373ffffffffffffffffffffffffffffffffffffffff1603611a8757806040517f7e273289000000000000000000000000000000000000000000000000000000008152600401611a7e9190612318565b60405180910390fd5b81816040517f177e802f000000000000000000000000000000000000000000000000000000008152600401611abd929190612c64565b60405180910390fd5b505050565b606060006001611ada84611dbd565b01905060008167ffffffffffffffff811115611af957611af86123a9565b5b6040519080825280601f01601f191660200182016040528015611b2b5781602001600182028036833780820191505090505b509050600082602001820190505b600115611b8e578080600190039150507f3031323334353637383961626364656600000000000000000000000000000000600a86061a8153600a8581611b8257611b81612c8d565b5b04945060008503611b39575b819350505050919050565b600073ffffffffffffffffffffffffffffffffffffffff168273ffffffffffffffffffffffffffffffffffffffff1603611c0b5760006040517f64a0ae92000000000000000000000000000000000000000000000000000000008152600401611c029190612135565b60405180910390fd5b6000611c1983836000610c40565b9050600073ffffffffffffffffffffffffffffffffffffffff168173ffffffffffffffffffffffffffffffffffffffff1614611c8d5760006040517f73c6ac6e000000000000000000000000000000000000000000000000000000008152600401611c849190612135565b60405180910390fd5b505050565b60007f01ffc9a7000000000000000000000000000000000000000000000000000000007bffffffffffffffffffffffffffffffffffffffffffffffffffffffff1916827bffffffffffffffffffffffffffffffffffffffffffffffffffffffff1916149050919050565b60008073ffffffffffffffffffffffffffffffffffffffff168373ffffffffffffffffffffffffffffffffffffffff1614158015611db457508273ffffffffffffffffffffffffffffffffffffffff168473ffffffffffffffffffffffffffffffffffffffff161480611d755750611d74848461095c565b5b80611db357508273ffffffffffffffffffffffffffffffffffffffff16611d9b83610be9565b73ffffffffffffffffffffffffffffffffffffffff16145b5b90509392505050565b600080600090507a184f03e93ff9f4daa797ed6e38ed64bf6a1f0100000000000000008310611e1b577a184f03e93ff9f4daa797ed6e38ed64bf6a1f0100000000000000008381611e1157611e10612c8d565b5b0492506040810190505b6d04ee2d6d415b85acef81000000008310611e58576d04ee2d6d415b85acef81000000008381611e4e57611e4d612c8d565b5b0492506020810190505b662386f26fc100008310611e8757662386f26fc100008381611e7d57611e7c612c8d565b5b0492506010810190505b6305f5e1008310611eb0576305f5e1008381611ea657611ea5612c8d565b5b0492506008810190505b6127108310611ed5576127108381611ecb57611eca612c8d565b5b0492506004810190505b60648310611ef85760648381611eee57611eed612c8d565b5b0492506002810190505b600a8310611f07576001810190505b80915050919050565b6000604051905090565b600080fd5b600080fd5b60007fffffffff0000000000000000000000000000000000000000000000000000000082169050919050565b611f5981611f24565b8114611f6457600080fd5b50565b600081359050611f7681611f50565b92915050565b600060208284031215611f9257611f91611f1a565b5b6000611fa084828501611f67565b91505092915050565b60008115159050919050565b611fbe81611fa9565b82525050565b6000602082019050611fd96000830184611fb5565b92915050565b600081519050919050565b600082825260208201905092915050565b60005b83811015612019578082015181840152602081019050611ffe565b60008484015250505050565b6000601f19601f8301169050919050565b600061204182611fdf565b61204b8185611fea565b935061205b818560208601611ffb565b61206481612025565b840191505092915050565b600060208201905081810360008301526120898184612036565b905092915050565b6000819050919050565b6120a481612091565b81146120af57600080fd5b50565b6000813590506120c18161209b565b92915050565b6000602082840312156120dd576120dc611f1a565b5b60006120eb848285016120b2565b91505092915050565b600073ffffffffffffffffffffffffffffffffffffffff82169050919050565b600061211f826120f4565b9050919050565b61212f81612114565b82525050565b600060208201905061214a6000830184612126565b92915050565b61215981612114565b811461216457600080fd5b50565b60008135905061217681612150565b92915050565b6000806040838503121561219357612192611f1a565b5b60006121a185828601612167565b92505060206121b2858286016120b2565b9150509250929050565b6000806000606084860312156121d5576121d4611f1a565b5b60006121e386828701612167565b93505060206121f486828701612167565b9250506040612205868287016120b2565b9150509250925092565b6000819050919050565b6122228161220f565b811461222d57600080fd5b50565b60008135905061223f81612219565b92915050565b60006020828403121561225b5761225a611f1a565b5b600061226984828501612230565b91505092915050565b61227b8161220f565b82525050565b60006020820190506122966000830184612272565b92915050565b600080604083850312156122b3576122b2611f1a565b5b60006122c185828601612230565b92505060206122d285828601612167565b9150509250929050565b6000602082840312156122f2576122f1611f1a565b5b600061230084828501612167565b91505092915050565b61231281612091565b82525050565b600060208201905061232d6000830184612309565b92915050565b61233c81611fa9565b811461234757600080fd5b50565b60008135905061235981612333565b92915050565b6000806040838503121561237657612375611f1a565b5b600061238485828601612167565b92505060206123958582860161234a565b9150509250929050565b600080fd5b600080fd5b7f4e487b7100000000000000000000000000000000000000000000000000000000600052604160045260246000fd5b6123e182612025565b810181811067ffffffffffffffff82111715612400576123ff6123a9565b5b80604052505050565b6000612413611f10565b905061241f82826123d8565b919050565b600067ffffffffffffffff82111561243f5761243e6123a9565b5b61244882612025565b9050602081019050919050565b82818337600083830152505050565b600061247761247284612424565b612409565b905082815260208101848484011115612493576124926123a4565b5b61249e848285612455565b509392505050565b600082601f8301126124bb576124ba61239f565b5b81356124cb848260208601612464565b91505092915050565b600080600080608085870312156124ee576124ed611f1a565b5b60006124fc87828801612167565b945050602061250d87828801612167565b935050604061251e878288016120b2565b925050606085013567ffffffffffffffff81111561253f5761253e611f1f565b5b61254b878288016124a6565b91505092959194509250565b6000806040838503121561256e5761256d611f1a565b5b600061257c85828601612167565b925050602061258d85828601612167565b9150509250929050565b600067ffffffffffffffff8211156125b2576125b16123a9565b5b6125bb82612025565b9050602081019050919050565b60006125db6125d684612597565b612409565b9050828152602081018484840111156125f7576125f66123a4565b5b612602848285612455565b509392505050565b600082601f83011261261f5761261e61239f565b5b813561262f8482602086016125c8565b91505092915050565b6000806040838503121561264f5761264e611f1a565b5b600061265d85828601612167565b925050602083013567ffffffffffffffff81111561267e5761267d611f1f565b5b61268a8582860161260a565b9150509250929050565b7f4e487b7100000000000000000000000000000000000000000000000000000000600052602260045260246000fd5b600060028204905060018216806126db57607f821691505b6020821081036126ee576126ed612694565b5b50919050565b60006060820190506127096000830186612126565b6127166020830185612309565b6127236040830184612126565b949350505050565b7f43616c6c6572206973206e6f7420616e2061646d696e21000000000000000000600082015250565b6000612761601783611fea565b915061276c8261272b565b602082019050919050565b6000602082019050818103600083015261279081612754565b9050919050565b7f4e487b7100000000000000000000000000000000000000000000000000000000600052601160045260246000fd5b60006127d182612091565b91507fffffffffffffffffffffffffffffffffffffffffffffffffffffffffffffffff820361280357612802612797565b5b600182019050919050565b7f536f756c626f756e643a205472616e73666572206661696c6564000000000000600082015250565b6000612844601a83611fea565b915061284f8261280e565b602082019050919050565b6000602082019050818103600083015261287381612837565b9050919050565b600081519050919050565b600082825260208201905092915050565b60006128a18261287a565b6128ab8185612885565b93506128bb818560208601611ffb565b6128c481612025565b840191505092915050565b60006080820190506128e46000830187612126565b6128f16020830186612126565b6128fe6040830185612309565b81810360608301526129108184612896565b905095945050505050565b60008151905061292a81611f50565b92915050565b60006020828403121561294657612945611f1a565b5b60006129548482850161291b565b91505092915050565b600081905092915050565b600061297382611fdf565b61297d818561295d565b935061298d818560208601611ffb565b80840191505092915050565b60006129a58285612968565b91506129b18284612968565b91508190509392505050565b60008190508160005260206000209050919050565b60006020601f8301049050919050565b600082821b905092915050565b600060088302612a1f7fffffffffffffffffffffffffffffffffffffffffffffffffffffffffffffffff826129e2565b612a2986836129e2565b95508019841693508086168417925050509392505050565b6000819050919050565b6000612a66612a61612a5c84612091565b612a41565b612091565b9050919050565b6000819050919050565b612a8083612a4b565b612a94612a8c82612a6d565b8484546129ef565b825550505050565b600090565b612aa9612a9c565b612ab4818484612a77565b505050565b5b81811015612ad857612acd600082612aa1565b600181019050612aba565b5050565b601f821115612b1d57612aee816129bd565b612af7846129d2565b81016020851015612b06578190505b612b1a612b12856129d2565b830182612ab9565b50505b505050565b600082821c905092915050565b6000612b4060001984600802612b22565b1980831691505092915050565b6000612b598383612b2f565b9150826002028217905092915050565b612b7282611fdf565b67ffffffffffffffff811115612b8b57612b8a6123a9565b5b612b9582546126c3565b612ba0828285612adc565b600060209050601f831160018114612bd35760008415612bc1578287015190505b612bcb8582612b4d565b865550612c33565b601f198416612be1866129bd565b60005b82811015612c0957848901518255600182019150602085019450602081019050612be4565b86831015612c265784890151612c22601f891682612b2f565b8355505b6001600288020188555050505b505050505050565b6000604082019050612c506000830185612126565b612c5d6020830184612272565b9392505050565b6000604082019050612c796000830185612126565b612c866020830184612309565b9392505050565b7f4e487b7100000000000000000000000000000000000000000000000000000000600052601260045260246000fdfea2646970667358221220c03f9f847ac0f88332f2445d9b97918b0ad2e66c2a2c2e0dde750cb43d81f23764736f6c634300081c0033",
    "linkReferences": {},
    "deployedLinkReferences": {}
}